{
  "abi": [
    {
      "inputs": [
        {
          "internalType": "uint256",
          "name": "_amount",
          "type": "uint256"
        },
        {
          "internalType": "address",
          "name": "_USDC",
          "type": "address"
        },
        {
          "internalType": "address",
          "name": "_WETH9",
          "type": "address"
        },
        {
          "internalType": "uint256",
          "name": "_interval",
          "type": "uint256"
        },
        {
          "internalType": "uint8",
          "name": "_startNow",
          "type": "uint8"
        },
        {
          "internalType": "address payable",
          "name": "_recipient",
          "type": "address"
        }
      ],
      "stateMutability": "nonpayable",
      "type": "constructor"
    },
    {
      "anonymous": false,
      "inputs": [
        {
          "indexed": false,
          "internalType": "uint256",
          "name": "amount",
          "type": "uint256"
        },
        {
          "indexed": false,
          "internalType": "address",
          "name": "recipient",
          "type": "address"
        }
      ],
      "name": "Construction",
      "type": "event"
    },
    {
      "anonymous": false,
      "inputs": [
        {
          "indexed": true,
          "internalType": "address",
          "name": "previousOwner",
          "type": "address"
        },
        {
          "indexed": true,
          "internalType": "address",
          "name": "newOwner",
          "type": "address"
        }
      ],
      "name": "OwnershipTransferred",
      "type": "event"
    },
    {
      "anonymous": false,
      "inputs": [
        {
          "indexed": false,
          "internalType": "uint256",
          "name": "amountIn",
          "type": "uint256"
        },
        {
          "indexed": false,
          "internalType": "uint256",
          "name": "amountOut",
          "type": "uint256"
        }
      ],
      "name": "Swap",
      "type": "event"
    },
    {
      "inputs": [],
      "name": "USDC",
      "outputs": [
        {
          "internalType": "address",
          "name": "",
          "type": "address"
        }
      ],
      "stateMutability": "view",
      "type": "function"
    },
    {
      "inputs": [],
      "name": "USDC_TOKEN",
      "outputs": [
        {
          "internalType": "contract IERC20",
          "name": "",
          "type": "address"
        }
      ],
      "stateMutability": "view",
      "type": "function"
    },
    {
      "inputs": [],
      "name": "WETH9",
      "outputs": [
        {
          "internalType": "address",
          "name": "",
          "type": "address"
        }
      ],
      "stateMutability": "view",
      "type": "function"
    },
    {
      "inputs": [],
      "name": "WETH9_TOKEN",
      "outputs": [
        {
          "internalType": "contract IERC20",
          "name": "",
          "type": "address"
        }
      ],
      "stateMutability": "view",
      "type": "function"
    },
    {
      "inputs": [],
      "name": "amount",
      "outputs": [
        {
          "internalType": "uint256",
          "name": "",
          "type": "uint256"
        }
      ],
      "stateMutability": "view",
      "type": "function"
    },
    {
      "inputs": [],
      "name": "owner",
      "outputs": [
        {
          "internalType": "address",
          "name": "",
          "type": "address"
        }
      ],
      "stateMutability": "view",
      "type": "function"
    },
    {
      "inputs": [],
      "name": "poolFee",
      "outputs": [
        {
          "internalType": "uint24",
          "name": "",
          "type": "uint24"
        }
      ],
      "stateMutability": "view",
      "type": "function"
    },
    {
      "inputs": [],
      "name": "recipient",
      "outputs": [
        {
          "internalType": "address payable",
          "name": "",
          "type": "address"
        }
      ],
      "stateMutability": "view",
      "type": "function"
    },
    {
      "inputs": [],
      "name": "renounceOwnership",
      "outputs": [],
      "stateMutability": "nonpayable",
      "type": "function"
    },
    {
      "inputs": [
        {
          "internalType": "uint256",
          "name": "amountMin",
          "type": "uint256"
        }
      ],
      "name": "swap",
      "outputs": [
        {
          "internalType": "uint256",
          "name": "amountOut",
          "type": "uint256"
        }
      ],
      "stateMutability": "payable",
      "type": "function"
    },
    {
      "inputs": [],
      "name": "swapInterval",
      "outputs": [
        {
          "internalType": "uint256",
          "name": "",
          "type": "uint256"
        }
      ],
      "stateMutability": "view",
      "type": "function"
    },
    {
      "inputs": [],
      "name": "swapRouter",
      "outputs": [
        {
          "internalType": "contract ISwapRouter",
          "name": "",
          "type": "address"
        }
      ],
      "stateMutability": "view",
      "type": "function"
    },
    {
      "inputs": [],
      "name": "swapTime",
      "outputs": [
        {
          "internalType": "uint256",
          "name": "",
          "type": "uint256"
        }
      ],
      "stateMutability": "view",
      "type": "function"
    },
    {
      "inputs": [
        {
          "internalType": "address",
          "name": "newOwner",
          "type": "address"
        }
      ],
      "name": "transferOwnership",
      "outputs": [],
      "stateMutability": "nonpayable",
      "type": "function"
    },
    {
      "inputs": [],
      "name": "unstuck",
      "outputs": [],
      "stateMutability": "payable",
      "type": "function"
    }
  ],
  "bytecode": {
    "object": "0x61016060405273e592427a0aece92de3edee1f18e0157c05861564610140523480156200002b57600080fd5b5060405162000dbe38038062000dbe8339810160408190526200004e91620002a8565b62000059336200023f565b6001600160a01b03808616608052841660a0526200007983603c6200033f565b6200008690603c6200033f565b620000939060186200033f565b60e0819052620000a58360016200035f565b60ff16620000b491906200033f565b620000c090426200037b565b6001556080516001600160a01b039081166101005260a0511661012052620000f186670de0b6b3a76400006200033f565b6002556001600160a01b0380821660c0526101005161014051604080516318160ddd60e01b81529051929093169263095ea7b39284916318160ddd9160048083019260209291908290030181865afa15801562000152573d6000803e3d6000fd5b505050506040513d601f19601f8201168201806040525081019062000178919062000391565b6040516001600160e01b031960e085901b1681526001600160a01b03909216600483015260248201526044016020604051808303816000875af1158015620001c4573d6000803e3d6000fd5b505050506040513d601f19601f82011682018060405250810190620001ea9190620003ab565b5060025460c051604080519283526001600160a01b0390911660208301527f6a4293b125e47731828e7a667f464ecd5cb6751ae03828b8d6b4a9d0c259168e910160405180910390a1505050505050620003d6565b600080546001600160a01b038381166001600160a01b0319831681178455604051919092169283917f8be0079c531659141344cd1fd0a4f28419497f9722a3daafe3b4186f6b6457e09190a35050565b6001600160a01b0381168114620002a557600080fd5b50565b60008060008060008060c08789031215620002c257600080fd5b865195506020870151620002d6816200028f565b6040880151909550620002e9816200028f565b60608801516080890151919550935060ff811681146200030857600080fd5b60a08801519092506200031b816200028f565b809150509295509295509295565b634e487b7160e01b600052601160045260246000fd5b808202811582820484141762000359576200035962000329565b92915050565b60ff828116828216039081111562000359576200035962000329565b8082018082111562000359576200035962000329565b600060208284031215620003a457600080fd5b5051919050565b600060208284031215620003be57600080fd5b81518015158114620003cf57600080fd5b9392505050565b60805160a05160c05160e05161010051610120516101405161094e62000470600039600081816102cc0152610540015260006101c5015260008181610328015281816103c701526106600152600061029801526000818161017a01528181610391015281816104a401528181610602015261069101526000818161012e015261047101526000818161021d015261044c015261094e6000f3fe6080604052600436106100e85760003560e01c80638da5cb5b1161008a578063c31c9c0711610059578063c31c9c07146102ba578063c44db26c146102ee578063f2fde38b146102f6578063fa5692741461031657600080fd5b80638da5cb5b1461023f57806394b918de1461025d578063aa8c217c14610270578063b1283c1c1461028657600080fd5b8063715018a6116100c6578063715018a61461019c5780637d78fcbf146101b35780637fb181c1146101e757806389a302711461020b57600080fd5b8063089fe6aa146100ed5780634aa4a4fc1461011c57806366d003ac14610168575b600080fd5b3480156100f957600080fd5b506101036101f481565b60405162ffffff90911681526020015b60405180910390f35b34801561012857600080fd5b506101507f000000000000000000000000000000000000000000000000000000000000000081565b6040516001600160a01b039091168152602001610113565b34801561017457600080fd5b506101507f000000000000000000000000000000000000000000000000000000000000000081565b3480156101a857600080fd5b506101b161034a565b005b3480156101bf57600080fd5b506101507f000000000000000000000000000000000000000000000000000000000000000081565b3480156101f357600080fd5b506101fd60015481565b604051908152602001610113565b34801561021757600080fd5b506101507f000000000000000000000000000000000000000000000000000000000000000081565b34801561024b57600080fd5b506000546001600160a01b0316610150565b6101fd61026b366004610894565b61035e565b34801561027c57600080fd5b506101fd60025481565b34801561029257600080fd5b506101fd7f000000000000000000000000000000000000000000000000000000000000000081565b3480156102c657600080fd5b506101507f000000000000000000000000000000000000000000000000000000000000000081565b6101b16105f5565b34801561030257600080fd5b506101b16103113660046108ad565b61076f565b34801561032257600080fd5b506101507f000000000000000000000000000000000000000000000000000000000000000081565b6103526107ea565b61035c6000610844565b565b60006103686107ea565b60015442101561037757600080fd5b6002546040516323b872dd60e01b81526001600160a01b037f00000000000000000000000000000000000000000000000000000000000000008116600483015230602483015260448201929092527f0000000000000000000000000000000000000000000000000000000000000000909116906323b872dd906064016020604051808303816000875af1158015610412573d6000803e3d6000fd5b505050506040513d601f19601f8201168201806040525081019061043691906108dd565b5060408051610100810182526001600160a01b037f0000000000000000000000000000000000000000000000000000000000000000811682527f00000000000000000000000000000000000000000000000000000000000000008116602083019081526101f48385019081527f0000000000000000000000000000000000000000000000000000000000000000831660608501908152426080860190815260025460a0870190815260c087018a8152600060e08901908152985163414bf38960e01b8152885188166004820152955187166024870152935162ffffff1660448601529151851660648501525160848401525160a48301525160c48201529251811660e484015290917f00000000000000000000000000000000000000000000000000000000000000009091169063414bf38990610104016020604051808303816000875af115801561058c573d6000803e3d6000fd5b505050506040513d601f19601f820116820180604052508101906105b091906108ff565b60025460408051918252602082018390529193507f015fc8ee969fd902d9ebd12a31c54446400a2b512a405366fe14defd6081d220910160405180910390a150919050565b6040516001600160a01b037f000000000000000000000000000000000000000000000000000000000000000016904780156108fc02916000818181858888f1935050505015801561064a573d6000803e3d6000fd5b506040516370a0823160e01b81523060048201527f00000000000000000000000000000000000000000000000000000000000000006001600160a01b03169063a9059cbb907f00000000000000000000000000000000000000000000000000000000000000009083906370a0823190602401602060405180830381865afa1580156106d9573d6000803e3d6000fd5b505050506040513d601f19601f820116820180604052508101906106fd91906108ff565b6040516001600160e01b031960e085901b1681526001600160a01b03909216600483015260248201526044016020604051808303816000875af1158015610748573d6000803e3d6000fd5b505050506040513d601f19601f8201168201806040525081019061076c91906108dd565b50565b6107776107ea565b6001600160a01b0381166107e15760405162461bcd60e51b815260206004820152602660248201527f4f776e61626c653a206e6577206f776e657220697320746865207a65726f206160448201526564647265737360d01b60648201526084015b60405180910390fd5b61076c81610844565b6000546001600160a01b0316331461035c5760405162461bcd60e51b815260206004820181905260248201527f4f776e61626c653a2063616c6c6572206973206e6f7420746865206f776e657260448201526064016107d8565b600080546001600160a01b038381166001600160a01b0319831681178455604051919092169283917f8be0079c531659141344cd1fd0a4f28419497f9722a3daafe3b4186f6b6457e09190a35050565b6000602082840312156108a657600080fd5b5035919050565b6000602082840312156108bf57600080fd5b81356001600160a01b03811681146108d657600080fd5b9392505050565b6000602082840312156108ef57600080fd5b815180151581146108d657600080fd5b60006020828403121561091157600080fd5b505191905056fea2646970667358221220f95eb70052c07dcbb50a68943d2c27e0a845437f050e28010930604cc486c4fc64736f6c63430008110033",
    "linkReferences": {}
  },
  "methodIdentifiers": {
    "USDC()": "89a30271",
    "USDC_TOKEN()": "fa569274",
    "WETH9()": "4aa4a4fc",
    "WETH9_TOKEN()": "7d78fcbf",
    "amount()": "aa8c217c",
    "owner()": "8da5cb5b",
    "poolFee()": "089fe6aa",
    "recipient()": "66d003ac",
    "renounceOwnership()": "715018a6",
    "swap(uint256)": "94b918de",
    "swapInterval()": "b1283c1c",
    "swapRouter()": "c31c9c07",
    "swapTime()": "7fb181c1",
    "transferOwnership(address)": "f2fde38b",
    "unstuck()": "c44db26c"
  },
  "id": 5
}