{
  "abi": [
    {
      "inputs": [
        {
          "internalType": "uint256",
          "name": "_amount",
          "type": "uint256"
        },
        {
          "internalType": "address",
          "name": "_baseToken",
          "type": "address"
        },
        {
          "internalType": "address",
          "name": "_targetToken",
          "type": "address"
        },
        {
          "internalType": "uint256",
          "name": "_interval",
          "type": "uint256"
        },
        {
          "internalType": "uint8",
          "name": "_startNow",
          "type": "uint8"
        },
        {
          "internalType": "address payable",
          "name": "_recipient",
          "type": "address"
        },
        {
          "internalType": "address payable",
          "name": "_funder",
          "type": "address"
        },
        {
          "internalType": "uint24",
          "name": "_poolFee",
          "type": "uint24"
        },
        {
          "internalType": "uint256",
          "name": "_maxEpoch",
          "type": "uint256"
        }
      ],
      "stateMutability": "nonpayable",
      "type": "constructor"
    },
    {
      "anonymous": false,
      "inputs": [
        {
          "indexed": false,
          "internalType": "address",
          "name": "recipient",
          "type": "address"
        },
        {
          "indexed": false,
          "internalType": "uint256",
          "name": "interval",
          "type": "uint256"
        },
        {
          "indexed": false,
          "internalType": "uint256",
          "name": "amount",
          "type": "uint256"
        },
        {
          "indexed": false,
          "internalType": "address",
          "name": "baseTokenAddress",
          "type": "address"
        },
        {
          "indexed": false,
          "internalType": "address",
          "name": "targetTokenAddress",
          "type": "address"
        }
      ],
      "name": "DCACreated",
      "type": "event"
    },
    {
      "anonymous": false,
      "inputs": [
        {
          "indexed": false,
          "internalType": "address",
          "name": "baseTokenAddress",
          "type": "address"
        },
        {
          "indexed": false,
          "internalType": "uint256",
          "name": "amountIn",
          "type": "uint256"
        },
        {
          "indexed": false,
          "internalType": "address",
          "name": "targetTokenAddress",
          "type": "address"
        },
        {
          "indexed": false,
          "internalType": "uint256",
          "name": "amountOut",
          "type": "uint256"
        },
        {
          "indexed": false,
          "internalType": "address",
          "name": "executedBy",
          "type": "address"
        }
      ],
      "name": "Swap",
      "type": "event"
    },
    {
      "inputs": [],
      "name": "BASE_TOKEN",
      "outputs": [
        {
          "internalType": "contract IERC20",
          "name": "",
          "type": "address"
        }
      ],
      "stateMutability": "view",
      "type": "function"
    },
    {
      "inputs": [],
      "name": "TARGET_TOKEN",
      "outputs": [
        {
          "internalType": "contract IERC20",
          "name": "",
          "type": "address"
        }
      ],
      "stateMutability": "view",
      "type": "function"
    },
    {
      "inputs": [],
      "name": "amount",
      "outputs": [
        {
          "internalType": "uint256",
          "name": "",
          "type": "uint256"
        }
      ],
      "stateMutability": "view",
      "type": "function"
    },
    {
      "inputs": [],
      "name": "baseTokenAddress",
      "outputs": [
        {
          "internalType": "address",
          "name": "",
          "type": "address"
        }
      ],
      "stateMutability": "view",
      "type": "function"
    },
    {
      "inputs": [],
      "name": "currentEpoch",
      "outputs": [
        {
          "internalType": "uint256",
          "name": "",
          "type": "uint256"
        }
      ],
      "stateMutability": "view",
      "type": "function"
    },
    {
      "inputs": [],
      "name": "maxEpoch",
      "outputs": [
        {
          "internalType": "uint256",
          "name": "",
          "type": "uint256"
        }
      ],
      "stateMutability": "view",
      "type": "function"
    },
    {
      "inputs": [],
      "name": "poolFee",
      "outputs": [
        {
          "internalType": "uint24",
          "name": "",
          "type": "uint24"
        }
      ],
      "stateMutability": "view",
      "type": "function"
    },
    {
      "inputs": [],
      "name": "recipient",
      "outputs": [
        {
          "internalType": "address payable",
          "name": "",
          "type": "address"
        }
      ],
      "stateMutability": "view",
      "type": "function"
    },
    {
      "inputs": [
        {
          "internalType": "uint256",
          "name": "amountMin",
          "type": "uint256"
        }
      ],
      "name": "swap",
      "outputs": [
        {
          "internalType": "uint256",
          "name": "amountOut",
          "type": "uint256"
        }
      ],
      "stateMutability": "payable",
      "type": "function"
    },
    {
      "inputs": [],
      "name": "swapInterval",
      "outputs": [
        {
          "internalType": "uint256",
          "name": "",
          "type": "uint256"
        }
      ],
      "stateMutability": "view",
      "type": "function"
    },
    {
      "inputs": [],
      "name": "swapRouter",
      "outputs": [
        {
          "internalType": "contract ISwapRouter",
          "name": "",
          "type": "address"
        }
      ],
      "stateMutability": "view",
      "type": "function"
    },
    {
      "inputs": [],
      "name": "swapTime",
      "outputs": [
        {
          "internalType": "uint256",
          "name": "",
          "type": "uint256"
        }
      ],
      "stateMutability": "view",
      "type": "function"
    },
    {
      "inputs": [],
      "name": "targetTokenAddress",
      "outputs": [
        {
          "internalType": "address",
          "name": "",
          "type": "address"
        }
      ],
      "stateMutability": "view",
      "type": "function"
    },
    {
      "inputs": [],
      "name": "unstuckBase",
      "outputs": [],
      "stateMutability": "payable",
      "type": "function"
    },
    {
      "inputs": [],
      "name": "unstuckETH",
      "outputs": [],
      "stateMutability": "payable",
      "type": "function"
    },
    {
      "inputs": [],
      "name": "unstuckTarget",
      "outputs": [],
      "stateMutability": "payable",
      "type": "function"
    }
  ],
  "bytecode": {
    "object": "0x61018060405273e592427a0aece92de3edee1f18e0157c05861564610160523480156200002b57600080fd5b5060405162000da138038062000da18339810160408190526200004e9162000258565b6001600160a01b03808916608052871660a05262ffffff821660e052610100869052856200007e8660016200032d565b60ff166200008d91906200034f565b62000099904262000369565b6003556080516001600160a01b0390811661012081905260a05182166101405260008b8155600184905560025585821660c052600480546001600160a01b03191692861692909217825561016051604080516318160ddd60e01b81529051929363095ea7b39385926318160ddd92818101926020929091908290030181865afa1580156200012b573d6000803e3d6000fd5b505050506040513d601f19601f820116820180604052508101906200015191906200037f565b6040516001600160e01b031960e085901b1681526001600160a01b03909216600483015260248201526044016020604051808303816000875af11580156200019d573d6000803e3d6000fd5b505050506040513d601f19601f82011682018060405250810190620001c3919062000399565b5060c051610100516000546080805160a08051604080516001600160a01b0398891681526020810197909752860194909452908516606085015293909116908201527f844a93e90ccbd6ef9c13b22f2d63b7aeffe5dc9e8f497a36061f384c0528f119910160405180910390a1505050505050505050620003c4565b6001600160a01b03811681146200025557600080fd5b50565b60008060008060008060008060006101208a8c0312156200027857600080fd5b8951985060208a01516200028c816200023f565b60408b01519098506200029f816200023f565b60608b015160808c0151919850965060ff81168114620002be57600080fd5b60a08b0151909550620002d1816200023f565b60c08b0151909450620002e4816200023f565b60e08b015190935062ffffff81168114620002fe57600080fd5b809250506101008a015190509295985092959850929598565b634e487b7160e01b600052601160045260246000fd5b60ff828116828216039081111562000349576200034962000317565b92915050565b808202811582820484141762000349576200034962000317565b8082018082111562000349576200034962000317565b6000602082840312156200039257600080fd5b5051919050565b600060208284031215620003ac57600080fd5b81518015158114620003bd57600080fd5b9392505050565b60805160a05160c05160e0516101005161012051610140516101605161091c62000485600039600081816102e801526106c40152600081816103240152610803015260008181610157015281816103c9015261052b015260006102b401526000818161010a01526106010152600081816101a301528181610369015281816103fa0152818161062a0152610834015260008181610280015281816105d3015261078a0152600081816101fb015281816105ae0152610754015261091c6000f3fe6080604052600436106100f35760003560e01c806394b918de1161008a578063c31c9c0711610059578063c31c9c07146102d6578063caee57ff1461030a578063e2ac15cc14610312578063f26d929e1461034657600080fd5b806394b918de14610245578063aa8c217c14610258578063ae49945d1461026e578063b1283c1c146102a257600080fd5b80637cb374bd116100c65780637cb374bd146101e95780637fb181c11461021d57806382bcedb51461023357806383cf4f621461023d57600080fd5b8063089fe6aa146100f8578063210663e41461014557806366d003ac1461019157806376671808146101c5575b600080fd5b34801561010457600080fd5b5061012c7f000000000000000000000000000000000000000000000000000000000000000081565b60405162ffffff90911681526020015b60405180910390f35b34801561015157600080fd5b506101797f000000000000000000000000000000000000000000000000000000000000000081565b6040516001600160a01b03909116815260200161013c565b34801561019d57600080fd5b506101797f000000000000000000000000000000000000000000000000000000000000000081565b3480156101d157600080fd5b506101db60025481565b60405190815260200161013c565b3480156101f557600080fd5b506101797f000000000000000000000000000000000000000000000000000000000000000081565b34801561022957600080fd5b506101db60035481565b61023b61035c565b005b61023b6103b4565b6101db610253366004610864565b6104d6565b34801561026457600080fd5b506101db60005481565b34801561027a57600080fd5b506101797f000000000000000000000000000000000000000000000000000000000000000081565b3480156102ae57600080fd5b506101db7f000000000000000000000000000000000000000000000000000000000000000081565b3480156102e257600080fd5b506101797f000000000000000000000000000000000000000000000000000000000000000081565b61023b6107ee565b34801561031e57600080fd5b506101797f000000000000000000000000000000000000000000000000000000000000000081565b34801561035257600080fd5b506101db60015481565b6040516001600160a01b037f000000000000000000000000000000000000000000000000000000000000000016904780156108fc02916000818181858888f193505050501580156103b1573d6000803e3d6000fd5b50565b6040516370a0823160e01b81523060048201527f00000000000000000000000000000000000000000000000000000000000000006001600160a01b03169063a9059cbb907f00000000000000000000000000000000000000000000000000000000000000009083906370a08231906024015b602060405180830381865afa158015610443573d6000803e3d6000fd5b505050506040513d601f19601f82011682018060405250810190610467919061087d565b6040516001600160e01b031960e085901b1681526001600160a01b03909216600483015260248201526044016020604051808303816000875af11580156104b2573d6000803e3d6000fd5b505050506040513d601f19601f820116820180604052508101906103b19190610896565b60006003544210156104e757600080fd5b60015460025411156104f857600080fd5b600480546000546040516323b872dd60e01b81526001600160a01b039283169381019390935230602484015260448301527f000000000000000000000000000000000000000000000000000000000000000016906323b872dd906064016020604051808303816000875af1158015610574573d6000803e3d6000fd5b505050506040513d601f19601f820116820180604052508101906105989190610896565b5060408051610100810182526001600160a01b037f0000000000000000000000000000000000000000000000000000000000000000811682527f000000000000000000000000000000000000000000000000000000000000000081166020830190815262ffffff7f000000000000000000000000000000000000000000000000000000000000000081168486019081527f000000000000000000000000000000000000000000000000000000000000000084166060860190815242608087019081526000805460a0890190815260c089018c815260e08a01928352995163414bf38960e01b8152895189166004820152965188166024880152935190941660448601529051851660648501525160848401525160a4830152935160c48201529251811660e484015290917f00000000000000000000000000000000000000000000000000000000000000009091169063414bf38990610104016020604051808303816000875af1158015610710573d6000803e3d6000fd5b505050506040513d601f19601f82011682018060405250810190610734919061087d565b600280549193506000610746836108bf565b9091555050600054604080517f00000000000000000000000000000000000000000000000000000000000000006001600160a01b03908116825260208201939093527f00000000000000000000000000000000000000000000000000000000000000009092168282015260608201849052336080830152517f24043855bfbfea0ccea141e5a73d7116bf0bfe083ea900a791f4b407ff03e5259181900360a00190a150919050565b6040516370a0823160e01b81523060048201527f00000000000000000000000000000000000000000000000000000000000000006001600160a01b03169063a9059cbb907f00000000000000000000000000000000000000000000000000000000000000009083906370a0823190602401610426565b60006020828403121561087657600080fd5b5035919050565b60006020828403121561088f57600080fd5b5051919050565b6000602082840312156108a857600080fd5b815180151581146108b857600080fd5b9392505050565b6000600182016108df57634e487b7160e01b600052601160045260246000fd5b506001019056fea2646970667358221220adbadb3304398a268eb6cbbcfaf94ac2f4ca6dbe89da9db05192c93b87b34b0664736f6c63430008110033",
    "linkReferences": {}
  },
  "methodIdentifiers": {
    "BASE_TOKEN()": "210663e4",
    "TARGET_TOKEN()": "e2ac15cc",
    "amount()": "aa8c217c",
    "baseTokenAddress()": "7cb374bd",
    "currentEpoch()": "76671808",
    "maxEpoch()": "f26d929e",
    "poolFee()": "089fe6aa",
    "recipient()": "66d003ac",
    "swap(uint256)": "94b918de",
    "swapInterval()": "b1283c1c",
    "swapRouter()": "c31c9c07",
    "swapTime()": "7fb181c1",
    "targetTokenAddress()": "ae49945d",
    "unstuckBase()": "83cf4f62",
    "unstuckETH()": "82bcedb5",
    "unstuckTarget()": "caee57ff"
  },
  "id": 3
}