{
  "abi": [
    {
      "inputs": [
        {
          "internalType": "uint256",
          "name": "",
          "type": "uint256"
        }
      ],
      "name": "DCABotRecipient",
      "outputs": [
        {
          "internalType": "address",
          "name": "",
          "type": "address"
        }
      ],
      "stateMutability": "view",
      "type": "function"
    },
    {
      "inputs": [
        {
          "internalType": "uint256",
          "name": "",
          "type": "uint256"
        }
      ],
      "name": "DCABots",
      "outputs": [
        {
          "internalType": "contract DCA",
          "name": "",
          "type": "address"
        }
      ],
      "stateMutability": "view",
      "type": "function"
    },
    {
      "inputs": [
        {
          "internalType": "uint256",
          "name": "_amount",
          "type": "uint256"
        },
        {
          "internalType": "address",
          "name": "_baseToken",
          "type": "address"
        },
        {
          "internalType": "address",
          "name": "_targetToken",
          "type": "address"
        },
        {
          "internalType": "uint256",
          "name": "_interval",
          "type": "uint256"
        },
        {
          "internalType": "uint8",
          "name": "_startNow",
          "type": "uint8"
        },
        {
          "internalType": "address payable",
          "name": "_recipient",
          "type": "address"
        },
        {
          "internalType": "address payable",
          "name": "_funder",
          "type": "address"
        },
        {
          "internalType": "uint24",
          "name": "_poolFee",
          "type": "uint24"
        },
        {
          "internalType": "uint256",
          "name": "_maxEpoch",
          "type": "uint256"
        }
      ],
      "name": "createDCA",
      "outputs": [],
      "stateMutability": "nonpayable",
      "type": "function"
    },
    {
      "inputs": [],
      "name": "totalDCALength",
      "outputs": [
        {
          "internalType": "uint256",
          "name": "",
          "type": "uint256"
        }
      ],
      "stateMutability": "view",
      "type": "function"
    }
  ],
  "bytecode": {
    "object": "0x608060405234801561001057600080fd5b506110d7806100206000396000f3fe608060405234801561001057600080fd5b506004361061004c5760003560e01c806352967111146100515780635c94e0e014610081578063acfde3be14610096578063baf5d5b0146100a7575b600080fd5b61006461005f36600461021b565b6100ba565b6040516001600160a01b0390911681526020015b60405180910390f35b61009461008f36600461024c565b6100e4565b005b600054604051908152602001610078565b6100646100b536600461021b565b6101fe565b600081815481106100ca57600080fd5b6000918252602090912001546001600160a01b0316905081565b60008989898989898989896040516100fb9061020e565b9889526001600160a01b0397881660208a01529587166040890152606088019490945260ff9092166080870152841660a08601529290921660c084015262ffffff90911660e083015261010082015261012001604051809103906000f08015801561016a573d6000803e3d6000fd5b5060008054600181810183557f290decd9548b62a8d60345a988386fc84ba6bc95484008f6362f93160ef3e56390910180546001600160a01b039485166001600160a01b03199182161790915581548083018355919092527fb10e2d527612073b26eecdfd717e6a320cf44b4afac2b0732d9fcbe2b7fa0cf601805497909216961695909517909455505050505050505050565b600181815481106100ca57600080fd5b610da6806102fc83390190565b60006020828403121561022d57600080fd5b5035919050565b6001600160a01b038116811461024957600080fd5b50565b60008060008060008060008060006101208a8c03121561026b57600080fd5b8935985060208a013561027d81610234565b975060408a013561028d81610234565b965060608a0135955060808a013560ff811681146102aa57600080fd5b945060a08a01356102ba81610234565b935060c08a01356102ca81610234565b925060e08a013562ffffff811681146102e257600080fd5b809250506101008a01359050929598509295985092959856fe61018060405273e592427a0aece92de3edee1f18e0157c05861564610160523480156200002b57600080fd5b5060405162000da638038062000da68339810160408190526200004e9162000258565b6001600160a01b03808916608052871660a05262ffffff821660e052610100869052856200007e8660016200032d565b60ff166200008d91906200034f565b62000099904262000369565b6003556080516001600160a01b0390811661012081905260a05182166101405260008b8155600184905560025585821660c052600480546001600160a01b03191692861692909217825561016051604080516318160ddd60e01b81529051929363095ea7b39385926318160ddd92818101926020929091908290030181865afa1580156200012b573d6000803e3d6000fd5b505050506040513d601f19601f820116820180604052508101906200015191906200037f565b6040516001600160e01b031960e085901b1681526001600160a01b03909216600483015260248201526044016020604051808303816000875af11580156200019d573d6000803e3d6000fd5b505050506040513d601f19601f82011682018060405250810190620001c3919062000399565b5060a0516001600160a01b03166080516001600160a01b031660c0516001600160a01b03167f844a93e90ccbd6ef9c13b22f2d63b7aeffe5dc9e8f497a36061f384c0528f1196101005160005460405162000228929190918252602082015260400190565b60405180910390a4505050505050505050620003c4565b6001600160a01b03811681146200025557600080fd5b50565b60008060008060008060008060006101208a8c0312156200027857600080fd5b8951985060208a01516200028c816200023f565b60408b01519098506200029f816200023f565b60608b015160808c0151919850965060ff81168114620002be57600080fd5b60a08b0151909550620002d1816200023f565b60c08b0151909450620002e4816200023f565b60e08b015190935062ffffff81168114620002fe57600080fd5b809250506101008a015190509295985092959850929598565b634e487b7160e01b600052601160045260246000fd5b60ff828116828216039081111562000349576200034962000317565b92915050565b808202811582820484141762000349576200034962000317565b8082018082111562000349576200034962000317565b6000602082840312156200039257600080fd5b5051919050565b600060208284031215620003ac57600080fd5b81518015158114620003bd57600080fd5b9392505050565b60805160a05160c05160e0516101005161012051610140516101605161092162000485600039600081816102e801526106c40152600081816103240152610808015260008181610157015281816103c9015261052b015260006102b401526000818161010a01526106010152600081816101a301528181610369015281816103fa0152818161062a0152610839015260008181610280015281816105d301526107570152600081816101fb015281816105ae015261078101526109216000f3fe6080604052600436106100f35760003560e01c806394b918de1161008a578063c31c9c0711610059578063c31c9c07146102d6578063caee57ff1461030a578063e2ac15cc14610312578063f26d929e1461034657600080fd5b806394b918de14610245578063aa8c217c14610258578063ae49945d1461026e578063b1283c1c146102a257600080fd5b80637cb374bd116100c65780637cb374bd146101e95780637fb181c11461021d57806382bcedb51461023357806383cf4f621461023d57600080fd5b8063089fe6aa146100f8578063210663e41461014557806366d003ac1461019157806376671808146101c5575b600080fd5b34801561010457600080fd5b5061012c7f000000000000000000000000000000000000000000000000000000000000000081565b60405162ffffff90911681526020015b60405180910390f35b34801561015157600080fd5b506101797f000000000000000000000000000000000000000000000000000000000000000081565b6040516001600160a01b03909116815260200161013c565b34801561019d57600080fd5b506101797f000000000000000000000000000000000000000000000000000000000000000081565b3480156101d157600080fd5b506101db60025481565b60405190815260200161013c565b3480156101f557600080fd5b506101797f000000000000000000000000000000000000000000000000000000000000000081565b34801561022957600080fd5b506101db60035481565b61023b61035c565b005b61023b6103b4565b6101db610253366004610869565b6104d6565b34801561026457600080fd5b506101db60005481565b34801561027a57600080fd5b506101797f000000000000000000000000000000000000000000000000000000000000000081565b3480156102ae57600080fd5b506101db7f000000000000000000000000000000000000000000000000000000000000000081565b3480156102e257600080fd5b506101797f000000000000000000000000000000000000000000000000000000000000000081565b61023b6107f3565b34801561031e57600080fd5b506101797f000000000000000000000000000000000000000000000000000000000000000081565b34801561035257600080fd5b506101db60015481565b6040516001600160a01b037f000000000000000000000000000000000000000000000000000000000000000016904780156108fc02916000818181858888f193505050501580156103b1573d6000803e3d6000fd5b50565b6040516370a0823160e01b81523060048201527f00000000000000000000000000000000000000000000000000000000000000006001600160a01b03169063a9059cbb907f00000000000000000000000000000000000000000000000000000000000000009083906370a08231906024015b602060405180830381865afa158015610443573d6000803e3d6000fd5b505050506040513d601f19601f820116820180604052508101906104679190610882565b6040516001600160e01b031960e085901b1681526001600160a01b03909216600483015260248201526044016020604051808303816000875af11580156104b2573d6000803e3d6000fd5b505050506040513d601f19601f820116820180604052508101906103b1919061089b565b60006003544210156104e757600080fd5b60015460025411156104f857600080fd5b600480546000546040516323b872dd60e01b81526001600160a01b039283169381019390935230602484015260448301527f000000000000000000000000000000000000000000000000000000000000000016906323b872dd906064016020604051808303816000875af1158015610574573d6000803e3d6000fd5b505050506040513d601f19601f82011682018060405250810190610598919061089b565b5060408051610100810182526001600160a01b037f0000000000000000000000000000000000000000000000000000000000000000811682527f000000000000000000000000000000000000000000000000000000000000000081166020830190815262ffffff7f000000000000000000000000000000000000000000000000000000000000000081168486019081527f000000000000000000000000000000000000000000000000000000000000000084166060860190815242608087019081526000805460a0890190815260c089018c815260e08a01928352995163414bf38960e01b8152895189166004820152965188166024880152935190941660448601529051851660648501525160848401525160a4830152935160c48201529251811660e484015290917f00000000000000000000000000000000000000000000000000000000000000009091169063414bf38990610104016020604051808303816000875af1158015610710573d6000803e3d6000fd5b505050506040513d601f19601f820116820180604052508101906107349190610882565b600280549193506000610746836108c4565b9190505550336001600160a01b03167f00000000000000000000000000000000000000000000000000000000000000006001600160a01b03167f00000000000000000000000000000000000000000000000000000000000000006001600160a01b03167f24043855bfbfea0ccea141e5a73d7116bf0bfe083ea900a791f4b407ff03e525600054866040516107e5929190918252602082015260400190565b60405180910390a450919050565b6040516370a0823160e01b81523060048201527f00000000000000000000000000000000000000000000000000000000000000006001600160a01b03169063a9059cbb907f00000000000000000000000000000000000000000000000000000000000000009083906370a0823190602401610426565b60006020828403121561087b57600080fd5b5035919050565b60006020828403121561089457600080fd5b5051919050565b6000602082840312156108ad57600080fd5b815180151581146108bd57600080fd5b9392505050565b6000600182016108e457634e487b7160e01b600052601160045260246000fd5b506001019056fea264697066735822122040347a420a8bebfc392e2c92b04605d5c6f0675cd9b0397ba7a3d7681a1d0f9664736f6c63430008110033a26469706673582212206cd4af2f6e98733304e2bf7ed05b6943ddc3e3809074273591fe19ceeae1caa564736f6c63430008110033",
    "linkReferences": {}
  },
  "methodIdentifiers": {
    "DCABotRecipient(uint256)": "baf5d5b0",
    "DCABots(uint256)": "52967111",
    "createDCA(uint256,address,address,uint256,uint8,address,address,uint24,uint256)": "5c94e0e0",
    "totalDCALength()": "acfde3be"
  },
  "id": 4
}